:020000040000fa
:080000000002040000000000f2
:020000040000fa
:10000800a2020000a2020000a2020000a202000058
:10001800a2020000a2020000a2020000a202000048
:10002800a2020000a2020000a2020000a202000038
:10003800a2020000a2020000a2020000a202000028
:020000040000fa
:020000040000fa
:100400000f8020000eff20000e0188000000000079
:10041000000020000000e000020032000001200087
:10042000200288000c0007008093200001002000bb
:1004300011000700000020000000e0000200320070
:100440000000020000000000200302000000000085
:100450000040da000000fe004440a9000002200035
:100460000000e0000300320000002000a00188002e
:100470004440a80000000600910188008000780038
:100480000000eb0015003700e280400032a0b4000d
:100490009101ba00e280400032a0b4009102ba009b
:1004a000e280400032a0b4000002eb00472bde00e7
:1004b000f507b200602ce10004003a000059eb009f
:1004c0008301e900fdff3e00040037006128e100e0
:1004d000010032000082eb00040007001101ba00a5
:1004e0000200e000e8ff3a00000006003159ba00bf
:1004f0008301e9000c0032002159ba008301e900b0
:10050000080032000400e00003003a00e2804000ee
:1005100032a0b400f5ff370011d9ba008301e90019
:10052000faff3a008100e800e180400032a0b40008
:1005300000000600000000000000000000000000b5
:0c054000000000000040da000000fe0097
:020000040000fa
:10054c000900000008000000060000000700000081
:10055c0000000000010000000f000000000000007f
:10056c000100000002000000030000000400000075
:10057c000500000006000000070000000800000055
:020000040000fa
:10058c000000fa001021ef001221ef000a21ef0009
:10059c000621ef008500a9001061a80011e1a80058
:1005ac000080fa00000006000800fa0020079800fe
:1005bc0031079800be00900000fa20000088b900b6
:1005cc00000178002e0090006000b9000000780057
:1005dc0000014100ae00900000fa20000008b800b5
:1005ec000101410082007800008fbe00008fbe0028
:1005fc000621ef000a21ef001e00be004008de00bd
:10060c0000007800700888001e00780060088800e0
:10061c000000000021048000001020000080600019
:10062c000000e000fbff32008500a9000080fa000a
:10063c00000006001000fa00d1ff0700c822ef00ee
:10064c00cc22ef00f00f200000168800e024ef0011
:10065c000000eb00000f780010002000100798003d
:10066c000000eb00200798000000eb00300798001a
:10067c000000eb00700798000000eb0040079800aa
:10068c000000eb005007980003003700000000004a
:10069c00010037000000000020002000c402070009
:1006ac000000e000420032001e0078000000e00074
:1006bc003f003a002e0090000000e0003c003a00a1
:1006cc00350037001e00900000f0a7000000ea0083
:1006dc000000e9004f00de00100798001e0090009b
:1006ec000000e00012003a00100020000100200081
:1006fc00adff0700a27b20009015840011002000a4
:10070c0002000100401f200001002000a6ff07008e
:10071c00a27b2000901584008000eb0002000100f9
:10072c00401f2000010020009fff07001a00370027
:10073c001e0090000000e0001700320010002000a6
:10074c006007980011003700a27b200090158400f0
:10075c0011002000020001004006200001002000d2
:10076c0091ff0700a27b2000901584008000eb0015
:10077c000200010040062000010020008aff070053
:10078c006e0090000000e800600798006e0090007a
:10079c00e50f5000ecff340020002000840207001d
:1007ac000000e000c7ff3a0010002000000f7800a6
:1007bc00200020007e0207000000e00006013a0045
:1007cc001e0078000000e000030132001000200041
:1007dc0020079800a27b20009015840011002000b7
:1007ec000200010070158400710207000000e00097
:1007fc001a003200801584006d0207000000e00032
:10080c00160032005e0090000000e80050079800cf
:10081c00de0090007000200000017800110009003b
:10082c008200d8008000fd000000e00004003a00c7
:10083c00a1632000b0158400010001000300370003
:10084c00a1632000a015840001000100100020000d
:10085c000100200054ff0700df00370070158400f2
:10086c00530207000000e0000b003a0080158400e2
:10087c004f0207000000e00007003a00a1632000cf
:10088c00a01584000100010040062000010020009a
:10089c0045ff0700d00037007015840044020700a4
:1008ac000000e0003e003a00801584004002070082
:1008bc000000e0003a0032001e0090000000e00052
:1008cc0037003a004e009000f40f50002200340024
:1008dc001e0078000000e00021003200a16320001f
:1008ec00a01584000100010040062000010020003a
:1008fc002dff0700a1632000b0158400010001004a
:10090c00406a20000100200027ff07000300370089
:10091c00a1632000f0158400010001007015840013
:10092c00230207000000e000040032008015840060
:10093c001f0207000000e000f5ff3a000000eb008a
:10094c00000f780013003700a1632000e01584002d
:10095c000100010003003700000000000100370017
:10096c000000000070158400110207000000e00078
:10097c00f5ff3200801584000d0207000000e00036
:10098c0004003a0020002000090207000000e000eb
:10099c00edff32000000eb00400798008e0037009e
:1009ac0070158400020207000000e0002f003200e6
:1009bc0080158400fe0107000000e0002b003a00c7
:1009cc001e0090000000e00028003a003e0090005d
:1009dc00e30f500011003a00a1632000a015840021
:1009ec0001000100201c200001002000eefe070089
:1009fc00a1632000c015840001000100e047200025
:100a0c0001002000e8fe070011003700a163200060
:100a1c00d015840001000100010037000000000027
:100a2c0070158400e20107000000e000f7ff3200bf
:100a3c0080158400de0107000000e00004003a008d
:100a4c0020002000da0107000000e000efff320078
:100a5c003e0090000000e800300798004e00900027
:100a6c000000e800400798005b0037007015840018
:100a7c00cf0107000000e0001a003a008015840046
:100a8c00cb0107000000e000160032001e009000b1
:100a9c000000e0001300320003003700a1632000c7
:100aac00e01584000100010070158400c0010700ee
:100abc000000e000f9ff320080158400bc01070043
:100acc000000e00004003a0020002000b8010700fc
:100adc000000e000f1ff32000000eb00400798003e
:100aec003d00370070158400b10107000000e000e4
:100afc003900320080158400ad0107000000e000d1
:100b0c0035003a001e0090000000e0003200320078
:100b1c004e009000e80f50001f003a00a163200027
:100b2c00a015840001000100a00f2000010020008e
:100b3c009dfe0700a1632000c01584000100010088
:100b4c00203520000100200097fe0700030037002d
:100b5c00a1632000f01584000100010070158400d1
:100b6c00930107000000e0000400320080158400af
:100b7c008f0107000000e000f5ff3a000000eb00d9
:100b8c00000f780011003700a1632000d0158400fd
:100b9c000100010001003700000000007015840006
:100bac00830107000000e000f7ff3200801584008d
:100bbc007f0107000000e00004003a002000200044
:100bcc007b0107000000e000efff32004e009000b8
:100bdc000000e80040079800200020007401070086
:100bec000000e000050032002e0090000000e00044
:100bfc00020032000000eb00000f78002000200003
:100c0c006b0107000000e000a0fe3a001e00780017
:100c1c000000e0009ffe3a00a16320000016840053
:100c2c00010001000000eb00200798000000eb0021
:100c3c005007980010002000100798000000eb00ef
:100c4c00300798000000eb00700798000000eb00e4
:100c5c0040079800a27b2000901584008000eb00d8
:100c6c00020001008cfe37000200fa00000f780031
:100c7c00a01584009e007800808f500011003a006f
:100c8c00a27b20003015840011002000020001001e
:100c9c00a27b2000401584008000eb0002000100c4
:100cac00a27b2000501584001100200002000100de
:100cbc00a27b2000601584008000eb000200010084
:100ccc00a7003700b01584009e007800808f50007c
:100cdc0011003a00a27b2000301584008000eb004c
:100cec0002000100a27b2000401584008000eb0074
:100cfc0002000100a27b200050158400110020008e
:100d0c0002000100a27b2000601584008000eb0033
:100d1c000200010092003700c01584009e0078008c
:100d2c00808f500011003a00a27b20003015840007
:100d3c001100200002000100a27b2000401584005d
:100d4c008000eb0002000100a27b20005015840003
:100d5c008000eb0002000100a27b200060158400e3
:100d6c008000eb00020001007d003700d0158400ec
:100d7c009e007800808f500011003a00a27b20006a
:100d8c00301584001100200002000100a27b20001d
:100d9c00401584008000eb0002000100a27b2000c3
:100dac00501584008000eb0002000100a27b2000a3
:100dbc00601584001100200002000100680037005b
:100dcc00e01584009e007800808f500011003a00de
:100ddc00a27b2000301584008000eb000200010093
:100dec00a27b2000401584001100200002000100ad
:100dfc00a27b20005015840011002000020001008d
:100e0c00a27b2000601584008000eb000200010032
:100e1c0053003700f01584009e007800808f50003e
:100e2c0011003a00a27b2000301584008000eb00fa
:100e3c0002000100a27b200040158400110020005c
:100e4c0002000100a27b2000501584008000eb0002
:100e5c0002000100a27b200060158400110020001c
:100e6c00020001003e003700001684009e0078004e
:100e7c00808f500011003a00a27b200030158400b6
:100e8c008000eb0002000100a27b200040158400d2
:100e9c008000eb0002000100a27b200050158400b2
:100eac008000eb0002000100a27b20006015840092
:100ebc008000eb00020001002900370010168400ae
:100ecc009e007800808f500011003a00a27b200019
:100edc00301584008000eb0002000100a27b200092
:100eec00401584008000eb0002000100a27b200072
:100efc00501584008000eb0002000100a27b200052
:100f0c00601584001100200002000100140037005d
:100f1c00201684009e007800808f500010003a004c
:100f2c00a27b2000301584008000eb000200010041
:100f3c00a27b20004015840011002000020001005b
:100f4c00a27b2000501584008000eb000200010001
:100f5c00a27b2000601584008000eb0002000100e1
:100f6c000080fa00000006000400fa00000f780070
:100f7c00110798001e0078006101b900a0ff2f0036
:100f8c00f1ff2f00020040008380480092002000f7
:100f9c0003002000820f5000838f580082003e0017
:100fac000060010009003700140037001f003700f3
:100fbc002a00370035003700400037004b0037005f
:100fcc0056003700610037006c0037001e0090009f
:100fdc0000407800614060000080fb006100600010
:100fec004600dd0062168000f1fb2f0081006100dd
:100ffc0001007000601688006b0037001e00900026
:10100c0000407800614060000080fb0061006000df
:10101c004700dd0062168000f1f72f0081006100af
:10102c0001007000601688005f0037001e00900001
:10103c0000407800614060000080fb0061006000af
:10104c004800dd0062168000f1ef2f008100610086
:10105c000100700060168800530037001e009000dd
:10106c0000407800614060000080fb00610060007f
:10107c004900dd0062168000f1df2f008100610065
:10108c000100700060168800470037001e009000b9
:10109c0000407800614060000080fb00610060004f
:1010ac004a00dd0062168000f1bf2f008100610054
:1010bc0001007000601688003b0037001e00900095
:1010cc0000407800614060000080fb00610060001f
:1010dc004b00dd0062168000f17f2f008100610063
:1010ec0001007000601688002f0037001e00900071
:1010fc0000407800614060000080fb0061006000ef
:10110c004c00dd0062168000f1ff2e0081006100b2
:10111c000100700060168800230037001e0090004c
:10112c0000407800614060000080fb0061006000be
:10113c004d00dd0062168000f1ff2d008100610082
:10114c000100700060168800170037001e00900028
:10115c0000407800614060000080fb00610060008e
:10116c004e00dd0062168000f1ff2b008100610053
:10117c0001007000601688000b0037001e00900004
:10118c0000407800614060000080fb004f00dd00f3
:10119c0062168000f1ff27008100610001007000e1
:1011ac0060168800000000000080fa0000000600b5
:1011bc000200fa00000f78001e007800e20f5000c9
:1011cc0016003200e20f500005003c000000e00069
:1011dc0008003200e10f50000b0032001e003700f7
:1011ec00e30f500012003200e40f500015003200e3
:1011fc001900370010168000004078006140600034
:10120c000080fb0015003700101680000000d10094
:10121c00614060000080fb00100037001016800059
:10122c004200de00614060000080fb000b003700d4
:10123c00101680004300de00614060000080fb005f
:10124c0006003700101680004400de00614060008c
:10125c000080fb0001003700000037000080fa001e
:04126c000000060078
:020000040000fa
:04127000000000007a
:020000040000fa
:0200000401f009
:04000c0058ff000099
:020000040000fa
:0200000401f009
:04001000fbff0000f2
:020000040000fa
:0200000401f009
:040014005fff00008a
:020000040000fa
:0200000401f009
:04001c00ffff0000e2
:020000040000fa
:0200000401f009
:040020007fff00005e
:00000001FF
