:020000040000fa
:080000000002040000000000f2
:020000040000fa
:10000800a2020000a2020000a2020000a202000058
:10001800a2020000a2020000a2020000a202000048
:10002800a2020000a2020000a2020000a202000038
:10003800a2020000a2020000a2020000a202000028
:020000040000fa
:020000040000fa
:100400000f8020000eff20000e0188000000000079
:10041000000020000000e000020032000001200087
:10042000200288000c0007008097200001002000b7
:1004300011000700000020000000e0000200320070
:100440000000020000000000200302000000000085
:100450000040da000000fe004440a9000002200035
:100460000000e0000300320000002000a00188002e
:100470004440a80000000600910188008000780038
:100480000000eb0015003700e280400032a0b4000d
:100490009101ba00e280400032a0b4009102ba009b
:1004a000e280400032a0b4000002eb00472bde00e7
:1004b000f507b200602ce10004003a000059eb009f
:1004c0008301e900fdff3e00040037006128e100e0
:1004d000010032000082eb00040007001101ba00a5
:1004e0000200e000e8ff3a00000006003159ba00bf
:1004f0008301e9000c0032002159ba008301e900b0
:10050000080032000400e00003003a00e2804000ee
:1005100032a0b400f5ff370011d9ba008301e90019
:10052000faff3a008100e800e180400032a0b40008
:1005300000000600000000000000000000000000b5
:0c054000000000000040da000000fe0097
:020000040000fa
:10054c000900000008000000060000000700000081
:10055c0000000000010000000f000000000000007f
:10056c000100000002000000030000000400000075
:10057c000500000006000000070000000800000055
:020000040000fa
:10058c000000fa001021ef001221ef000a21ef0009
:10059c000621ef008500a9001061a80011e1a80058
:1005ac000080fa00000006000800fa0020079800fe
:1005bc0031079800be00900000fa20000088b900b6
:1005cc00000178002e0090006000b9000000780057
:1005dc0000014100ae00900000fa20000008b800b5
:1005ec000101410082007800008fbe00008fbe0028
:1005fc000621ef000a21ef001e00be004008de00bd
:10060c0000007800700888001e00780060088800e0
:10061c000000000021048000001020000080600019
:10062c000000e000fbff32008500a9000080fa000a
:10063c00000006000c00fa00d1ff0700c822ef00f2
:10064c00cc22ef00f00f200000168800e024ef0011
:10065c000000eb00000f78000000eb001007980082
:10066c000000eb00200798000000eb00300798001a
:10067c000000eb00400798000000eb0050079800ca
:10068c0003003700000000000100370000000000ec
:10069c0020002000e60207000000e0000800320005
:1006ac001e0078000000e00005003a001e009000db
:1006bc000000e00002003a0010002000000f78005b
:1006cc0020002000da0207000000e00064013a007c
:1006dc001e0078000000e0006101320010002000d4
:1006ec0010079800a27f20009015840011002000b4
:1006fc00020001002e0090000000e00012003a0001
:10070c0003003700a1672000a01584000100010040
:10071c0070158400c60207000000e00008003a00d3
:10072c0080158400c20207000000e00004003a00bb
:10073c0020002000be0207000000e000f1ff3200a4
:10074c00100020002007980070158400b8020700e4
:10075c000000e0001a00320080158400b40207008b
:10076c000000e000160032005e0090000000e8007f
:10077c0050079800de009000a000200000017800d7
:10078c00110009008200d8008000fd000000e0008c
:10079c0004003a00a1672000b0158400010001009c
:1007ac0003003700a1672000a015840001000100a0
:1007bc0010002000010020007bff070028013700fb
:1007cc00701584009a0207000000e00005013a0051
:1007dc0080158400960207000000e00001013a0039
:1007ec00de009000703e2000808f5000030034002b
:1007fc004e0090000000e80040079800de009000da
:10080c00703e2000808f50000f003c00a16720003c
:10081c00a0158400010001003e0090000000e800db
:10082c00300798000000000070158400800207005b
:10083c000000e00004003a00801584007c020700f0
:10084c000000e000f8ff32004e009000e10f500075
:10085c001e003a00a1672000a015840001000100d1
:10086c0010002000010020004fff07003e00900008
:10087c00e10f5000030032003e009000e30f5000e7
:10088c0006003a00a1672000b015840001000100a9
:10089c00003220000100200043ff07003e009000c2
:1008ac00e20f5000030032003e009000e40f5000b5
:1008bc0006003a00a1672000c01584000100010069
:1008cc00003220000100200037ff07004e0090008e
:1008dc00e20f50001e003a00a1672000a015840012
:1008ec000100010010002000010020002eff070075
:1008fc003e009000e10f5000030032003e009000db
:10090c00e30f500006003a00a1672000c0158400d8
:10091c0001000100802520000100200022ff0700bb
:10092c003e009000e20f5000030032003e009000a9
:10093c00e40f500006003a00a1672000b0158400b7
:10094c0001000100802520000100200016ff070097
:10095c004e009000e30f50001e003a00a1672000eb
:10096c00a0158400010001001000200001002000ef
:10097c000dff07003e009000e10f50000300320015
:10098c003e009000e40f500006003a00a1672000e2
:10099c00c015840001000100c02b200001002000c4
:1009ac0001ff07003e009000e20f500003003200f0
:1009bc003e009000e30f500006003a00a1672000b3
:1009cc00b015840001000100c02b200001002000a4
:1009dc00f5fe07004e009000e40f500025003a0091
:1009ec00a1672000a0158400010001001000200068
:1009fc0001002000ecfe0700a1672000f015840028
:100a0c00010001000032200001002000e6fe07007a
:100a1c003e009000e10f5000030032003e009000b9
:100a2c00e40f500007003a00a1672000c0158400b5
:100a3c00010001000032200001002000dafe070056
:100a4c000c0037003e009000e20f50000300320013
:100a5c003e009000e30f500006003a00a167200012
:100a6c00b0158400010001000032200001002000bc
:100a7c00cdfe07004e009000e50f50001f003a001d
:100a8c00a1672000a01584000100010010002000c7
:100a9c0001002000c4fe07003e009000e20f500051
:100aac00030032003e009000e40f500007003a00b3
:100abc00a1672000b015840001000100403820001f
:100acc0001002000b8fe07000c0037003e0090002b
:100adc00e10f5000030032003e009000e30f500085
:100aec0006003a00a1672000c01584000100010037
:100afc004038200001002000abfe07004e009000a3
:100b0c00e60f500031003a00a1672000a0158400c8
:100b1c00010001001000200001002000a2fe0700cf
:100b2c003e009000e20f5000030032003e009000a7
:100b3c00e40f50000d003a00a1672000a0158400be
:100b4c0001000100c01220000100200096fe0700e9
:100b5c00a1672000c01584000100010000322000b4
:100b6c000100200090fe0700120037003e009000ac
:100b7c00e10f5000030032003e009000e30f5000e4
:100b8c000c003a00a1672000a015840001000100b0
:100b9c00a00f20000100200083fe0700a1672000a9
:100bac00b015840001000100403820000100200035
:100bbc007dfe0700a1672000a01584000100010044
:100bcc00c01220000100200077fe07004e009000ac
:100bdc00e70f500022003a000000eb00000f7800f5
:100bec001f00370070158400910107000000e00021
:100bfc000c003a00801584008d0107000000e00015
:100c0c0008003200de009000703e2000808f500003
:100c1c0004003400a1672000e015840001000100ed
:100c2c000f00370070158400810107000000e00000
:100c3c000b003200801584007d0107000000e000ed
:100c4c0007003a00de009000703e2000808f5000bc
:100c5c0003003400a1672000d015840001000100be
:100c6c0020002000720107000000e00005003200a7
:100c7c001e0090000000e000020032000000eb00bb
:100c8c00000f780020002000690107000000e00040
:100c9c007cfe3a001e0078000000e0007bfe3a006b
:100cac00a167200000168400010001000000eb0089
:100cbc00100798000000eb00500798000000eb00b4
:100ccc00300798000000eb00400798000000eb0094
:100cdc0020079800a27f2000901584008000eb0074
:100cec00020001006afe37000200fa00000f7800d3
:100cfc00a01584009e007800808f500011003a00ef
:100d0c00a27f200030158400110020000200010099
:100d1c00a27f2000401584008000eb00020001003f
:100d2c00a27f200050158400110020000200010059
:100d3c00a27f2000601584008000eb0002000100ff
:100d4c00a7003700b01584009e007800808f5000fb
:100d5c0011003a00a27f2000301584008000eb00c7
:100d6c0002000100a27f2000401584008000eb00ef
:100d7c0002000100a27f2000501584001100200009
:100d8c0002000100a27f2000601584008000eb00af
:100d9c000200010092003700c01584009e0078000c
:100dac00808f500011003a00a27f20003015840083
:100dbc001100200002000100a27f200040158400d9
:100dcc008000eb0002000100a27f2000501584007f
:100ddc008000eb0002000100a27f2000601584005f
:100dec008000eb00020001007d003700d01584006c
:100dfc009e007800808f500011003a00a27f2000e6
:100e0c00301584001100200002000100a27f200098
:100e1c00401584008000eb0002000100a27f20003e
:100e2c00501584008000eb0002000100a27f20001e
:100e3c0060158400110020000200010068003700da
:100e4c00e01584009e007800808f500011003a005d
:100e5c00a27f2000301584008000eb00020001000e
:100e6c00a27f200040158400110020000200010028
:100e7c00a27f200050158400110020000200010008
:100e8c00a27f2000601584008000eb0002000100ae
:100e9c0053003700f01584009e007800808f5000be
:100eac0011003a00a27f2000301584008000eb0076
:100ebc0002000100a27f20004015840011002000d8
:100ecc0002000100a27f2000501584008000eb007e
:100edc0002000100a27f2000601584001100200098
:100eec00020001003e003700001684009e007800ce
:100efc00808f500011003a00a27f20003015840032
:100f0c008000eb0002000100a27f2000401584004d
:100f1c008000eb0002000100a27f2000501584002d
:100f2c008000eb0002000100a27f2000601584000d
:100f3c008000eb000200010029003700101684002d
:100f4c009e007800808f500011003a00a27f200094
:100f5c00301584008000eb0002000100a27f20000d
:100f6c00401584008000eb0002000100a27f2000ed
:100f7c00501584008000eb0002000100a27f2000cd
:100f8c0060158400110020000200010014003700dd
:100f9c00201684009e007800808f500010003a00cc
:100fac00a27f2000301584008000eb0002000100bd
:100fbc00a27f2000401584001100200002000100d7
:100fcc00a27f2000501584008000eb00020001007d
:100fdc00a27f2000601584008000eb00020001005d
:100fec000080fa00000006000400fa00000f7800f0
:100ffc00110798001e0078006101b900a0ff2f00b6
:10100c00f1ff2f0002004000838048009200200076
:10101c0003002000820f5000838f580082003e0096
:10102c000060010009003700140037001f00370072
:10103c002a00370035003700400037004b003700de
:10104c0056003700610037006c0037001e0090001e
:10105c0000407800614060000080fb00610060008f
:10106c004600dd0062168000f1fb2f00810061005c
:10107c0001007000601688006b0037001e009000a5
:10108c0000407800614060000080fb00610060005f
:10109c004700dd0062168000f1f72f00810061002f
:1010ac0001007000601688005f0037001e00900081
:1010bc0000407800614060000080fb00610060002f
:1010cc004800dd0062168000f1ef2f008100610006
:1010dc000100700060168800530037001e0090005d
:1010ec0000407800614060000080fb0061006000ff
:1010fc004900dd0062168000f1df2f0081006100e5
:10110c000100700060168800470037001e00900038
:10111c0000407800614060000080fb0061006000ce
:10112c004a00dd0062168000f1bf2f0081006100d3
:10113c0001007000601688003b0037001e00900014
:10114c0000407800614060000080fb00610060009e
:10115c004b00dd0062168000f17f2f0081006100e2
:10116c0001007000601688002f0037001e009000f0
:10117c0000407800614060000080fb00610060006e
:10118c004c00dd0062168000f1ff2e008100610032
:10119c000100700060168800230037001e009000cc
:1011ac0000407800614060000080fb00610060003e
:1011bc004d00dd0062168000f1ff2d008100610002
:1011cc000100700060168800170037001e009000a8
:1011dc0000407800614060000080fb00610060000e
:1011ec004e00dd0062168000f1ff2b0081006100d3
:1011fc0001007000601688000b0037001e00900084
:10120c0000407800614060000080fb004f00dd0072
:10121c0062168000f1ff2700810061000100700060
:10122c0060168800000000000080fa000000060034
:10123c000200fa00000f78001e007800e20f500048
:10124c0016003200e20f500005003c000000e000e8
:10125c0008003200e10f50000b0032001e00370076
:10126c00e30f500012003200e40f50001500320062
:10127c0019003700101680000040780061406000b3
:10128c000080fb0015003700101680000000d10014
:10129c00614060000080fb001000370010168000d9
:1012ac004200de00614060000080fb000b00370054
:1012bc00101680004300de00614060000080fb00df
:1012cc0006003700101680004400de00614060000c
:1012dc000080fb0001003700000037000080fa009e
:0412ec0000000600f8
:020000040000fa
:0412f00000000000fa
:020000040000fa
:0200000401f009
:04000c0058ff000099
:020000040000fa
:0200000401f009
:04001000fbff0000f2
:020000040000fa
:0200000401f009
:040014005fff00008a
:020000040000fa
:0200000401f009
:04001c00ffff0000e2
:020000040000fa
:0200000401f009
:040020007fff00005e
:00000001FF
