:020000040000fa
:080000000002040000000000f2
:020000040000fa
:10000800a2020000a2020000a2020000a202000058
:10001800a2020000a2020000a2020000a202000048
:10002800a2020000a2020000a2020000a202000038
:10003800a2020000a2020000a2020000a202000028
:020000040000fa
:020000040000fa
:100400000f8020000eff20000e0188000000000079
:10041000000020000000e000020032000001200087
:10042000200288000c000700807d200001002000d1
:1004300011000700000020000000e0000200320070
:100440000000020000000000200302000000000085
:100450000040da000000fe004440a9000002200035
:100460000000e0000300320000002000a00188002e
:100470004440a80000000600910188008000780038
:100480000000eb0015003700e280400032a0b4000d
:100490009101ba00e280400032a0b4009102ba009b
:1004a000e280400032a0b4000002eb00472bde00e7
:1004b000f507b200602ce10004003a000059eb009f
:1004c0008301e900fdff3e00040037006128e100e0
:1004d000010032000082eb00040007001101ba00a5
:1004e0000200e000e8ff3a00000006003159ba00bf
:1004f0008301e9000c0032002159ba008301e900b0
:10050000080032000400e00003003a00e2804000ee
:1005100032a0b400f5ff370011d9ba008301e90019
:10052000faff3a008100e800e180400032a0b40008
:1005300000000600000000000000000000000000b5
:0c054000000000000040da000000fe0097
:020000040000fa
:10054c000900000008000000060000000700000081
:10055c0000000000010000000f000000000000007f
:10056c000100000002000000030000000400000075
:10057c000500000006000000070000000800000055
:020000040000fa
:10058c000000fa001021ef001221ef000a21ef0009
:10059c000621ef008500a9001061a80011e1a80058
:1005ac000080fa00000006000800fa0020079800fe
:1005bc0031079800be00900000fa20000088b900b6
:1005cc00000178002e0090006000b9000000780057
:1005dc0000014100ae00900000fa20000008b800b5
:1005ec000101410082007800008fbe00008fbe0028
:1005fc000621ef000a21ef001e00be004008de00bd
:10060c0000007800700888001e00780060088800e0
:10061c000000000021048000001020000080600019
:10062c000000e000fbff32008500a9000080fa000a
:10063c00000006000800fa00d1ff0700c822ef00f6
:10064c00cc22ef00f00f200000168800e024ef0011
:10065c000000eb00000f78000000eb001007980082
:10066c000000eb00200798000000eb00300798001a
:10067c0003003700000000000100370000000000fc
:10068c00200020001a0207000000e0000c003200dd
:10069c001e0090000000e00009003a002e009000bf
:1006ac000000e00006003a0010002000100798003f
:1006bc000000eb00000f78000000eb003007980002
:1006cc00200020000a0207000000e00098003a0019
:1006dc001e0090000000e000950032001000200089
:1006ec0020079800a26520009015840011002000be
:1006fc00020001003e0090000000e00012003a00f1
:10070c0003003700a14d2000a0158400010001005a
:10071c0070158400f60107000000e00008003a00a4
:10072c0080158400f20107000000e00004003a008c
:10073c0020002000ee0107000000e000f1ff320075
:10074c00100020003007980070158400e8010700a5
:10075c000000e0000800320080158400e40107006e
:10076c000000e00004003200a14d2000a015840020
:10077c00010001006e00370070158400dc010700d9
:10078c000000e00008003a0080158400d801070042
:10079c000000e00004003200a14d2000e0158400b0
:1007ac00010001006200370070158400d0010700c1
:1007bc000000e0000800320080158400cc01070026
:1007cc000000e00004003a00a14d2000d015840088
:1007dc00010001005600370070158400c4010700a9
:1007ec000000e00042003a0080158400c0010700c0
:1007fc000000e0003e003a001e0078000000e0001f
:10080c003b003a0003003700a14d2000e0158400a6
:10081c000100010070158400b50107000000e00024
:10082c000d003a0080158400b10107000000e000c3
:10083c000b003a0020002000ad0107000000e00092
:10084c00f1ff320007003700a14d2000e0158400b5
:10085c000100010003003700000000000100370018
:10086c000000000070158400a10107000000e000ea
:10087c000d003200801584009d0107000000e0008f
:10088c000b003a0020002000990107000000e00056
:10089c00edff320007003700a14d2000e015840069
:1008ac0001000100030037000000000001003700c8
:1008bc0000000000701584008d0107000000e000ae
:1008cc000800320080158400890107000000e00058
:1008dc000400320020002000850107000000e00029
:1008ec00edff320010002000000f780010003700e0
:1008fc00701584007e0107000000e0000c003a0037
:10090c00801584007a0107000000e00008003a001e
:10091c001e0078000000e00005003200a14d200010
:10092c0000168400010001000000eb001007980085
:10093c00200020006e0107000000e00005003200de
:10094c002e0090000000e000020032000000eb00de
:10095c001007980020002000650107000000e0004f
:10096c0044ff3a001e0090000000e00043ff3a00f4
:10097c00a14d200000168400010001000000eb00d6
:10098c00200798000000eb00000f78000000eb003f
:10099c0030079800a2652000901584008000eb00c1
:1009ac000200010036ff37000200fa00000f780049
:1009bc00a01584009e007800808f500011003a0032
:1009cc00a2652000301584001100200002000100f7
:1009dc00a2652000401584008000eb00020001009d
:1009ec00a2652000501584001100200002000100b7
:1009fc00a2652000601584008000eb00020001005d
:100a0c00a7003700b01584009e007800808f50003e
:100a1c0011003a00a2652000301584008000eb0024
:100a2c0002000100a2652000401584008000eb004c
:100a3c0002000100a2652000501584001100200066
:100a4c0002000100a2652000601584008000eb000c
:100a5c000200010092003700c01584009e0078004f
:100a6c00808f500011003a00a265200030158400e0
:100a7c001100200002000100a26520004015840036
:100a8c008000eb0002000100a265200050158400dc
:100a9c008000eb0002000100a265200060158400bc
:100aac008000eb00020001007d003700d0158400af
:100abc009e007800808f500011003a00a265200043
:100acc00301584001100200002000100a2652000f6
:100adc00401584008000eb0002000100a26520009c
:100aec00501584008000eb0002000100a26520007c
:100afc00601584001100200002000100680037001e
:100b0c00e01584009e007800808f500011003a00a0
:100b1c00a2652000301584008000eb00020001006b
:100b2c00a265200040158400110020000200010085
:100b3c00a265200050158400110020000200010065
:100b4c00a2652000601584008000eb00020001000b
:100b5c0053003700f01584009e007800808f500001
:100b6c0011003a00a2652000301584008000eb00d3
:100b7c0002000100a2652000401584001100200035
:100b8c0002000100a2652000501584008000eb00db
:100b9c0002000100a26520006015840011002000f5
:100bac00020001003e003700001684009e00780011
:100bbc00808f500011003a00a2652000301584008f
:100bcc008000eb0002000100a265200040158400ab
:100bdc008000eb0002000100a2652000501584008b
:100bec008000eb0002000100a2652000601584006b
:100bfc008000eb0002000100290037001016840071
:100c0c009e007800808f500011003a00a2652000f1
:100c1c00301584008000eb0002000100a26520006a
:100c2c00401584008000eb0002000100a26520004a
:100c3c00501584008000eb0002000100a26520002a
:100c4c006015840011002000020001001400370020
:100c5c00201684009e007800808f500010003a000f
:100c6c00a2652000301584008000eb00020001001a
:100c7c00a265200040158400110020000200010034
:100c8c00a2652000501584008000eb0002000100da
:100c9c00a2652000601584008000eb0002000100ba
:100cac000080fa00000006000400fa00000f780033
:100cbc00110798001e0078006101b900a0ff2f00f9
:100ccc00f1ff2f00020040008380480092002000ba
:100cdc0003002000820f5000838f580082003e00da
:100cec000060010009003700140037001f003700b6
:100cfc002a00370035003700400037004b00370022
:100d0c0056003700610037006c0037001e00900061
:100d1c0000407800614060000080fb0061006000d2
:100d2c004600dd0062168000f1fb2f00810061009f
:100d3c0001007000601688006b0037001e009000e8
:100d4c0000407800614060000080fb0061006000a2
:100d5c004700dd0062168000f1f72f008100610072
:100d6c0001007000601688005f0037001e009000c4
:100d7c0000407800614060000080fb006100600072
:100d8c004800dd0062168000f1ef2f008100610049
:100d9c000100700060168800530037001e009000a0
:100dac0000407800614060000080fb006100600042
:100dbc004900dd0062168000f1df2f008100610028
:100dcc000100700060168800470037001e0090007c
:100ddc0000407800614060000080fb006100600012
:100dec004a00dd0062168000f1bf2f008100610017
:100dfc0001007000601688003b0037001e00900058
:100e0c0000407800614060000080fb0061006000e1
:100e1c004b00dd0062168000f17f2f008100610025
:100e2c0001007000601688002f0037001e00900033
:100e3c0000407800614060000080fb0061006000b1
:100e4c004c00dd0062168000f1ff2e008100610075
:100e5c000100700060168800230037001e0090000f
:100e6c0000407800614060000080fb006100600081
:100e7c004d00dd0062168000f1ff2d008100610045
:100e8c000100700060168800170037001e009000eb
:100e9c0000407800614060000080fb006100600051
:100eac004e00dd0062168000f1ff2b008100610016
:100ebc0001007000601688000b0037001e009000c7
:100ecc0000407800614060000080fb004f00dd00b6
:100edc0062168000f1ff27008100610001007000a4
:100eec0060168800000000000080fa000000060078
:100efc000200fa00000f78001e007800e20f50008c
:100f0c0016003200e20f500005003c000000e0002b
:100f1c0008003200e10f50000b0032001e003700b9
:100f2c00e30f500012003200e40f500015003200a5
:100f3c0019003700101680000040780061406000f6
:100f4c000080fb0015003700101680000000d10057
:100f5c00614060000080fb0010003700101680001c
:100f6c004200de00614060000080fb000b00370097
:100f7c00101680004300de00614060000080fb0022
:100f8c0006003700101680004400de00614060004f
:100f9c000080fb0001003700000037000080fa00e1
:040fac00000006003b
:020000040000fa
:040fb000000000003d
:020000040000fa
:0200000401f009
:04000c0058ff000099
:020000040000fa
:0200000401f009
:04001000fbff0000f2
:020000040000fa
:0200000401f009
:040014005fff00008a
:020000040000fa
:0200000401f009
:04001c00ffff0000e2
:020000040000fa
:0200000401f009
:040020007fff00005e
:00000001FF
