:020000040000fa
:080000000002040000000000f2
:020000040000fa
:10000800a2020000a2020000a2020000a202000058
:10001800a2020000a2020000a2020000a202000048
:10002800a2020000a2020000a2020000a202000038
:10003800a2020000a2020000a2020000a202000028
:020000040000fa
:020000040000fa
:100400000f8020000eff20000e0188000000000079
:10041000000020000000e000020032000001200087
:10042000200288000c000700e0942000010020005a
:1004300011000700000020000000e0000200320070
:100440000000020000000000200302000000000085
:100450000040da000000fe004440a9000002200035
:100460000000e0000300320000002000a00188002e
:100470004440a80000000600910188008000780038
:100480000000eb0015003700e280400032a0b4000d
:100490009101ba00e280400032a0b4009102ba009b
:1004a000e280400032a0b4000002eb00472bde00e7
:1004b000f507b200602ce10004003a000059eb009f
:1004c0008301e900fdff3e00040037006128e100e0
:1004d000010032000082eb00040007001101ba00a5
:1004e0000200e000e8ff3a00000006003159ba00bf
:1004f0008301e9000c0032002159ba008301e900b0
:10050000080032000400e00003003a00e2804000ee
:1005100032a0b400f5ff370011d9ba008301e90019
:10052000faff3a008100e800e180400032a0b40008
:1005300000000600000000000000000000000000b5
:0c054000000000000040da000000fe0097
:020000040000fa
:10054c000900000008000000060000000700000081
:10055c0000000000010000000f000000000000007f
:10056c000100000002000000030000000400000075
:10057c000500000006000000070000000800000055
:020000040000fa
:10058c000000fa001021ef001221ef000a21ef0009
:10059c000621ef008500a9001061a80011e1a80058
:1005ac000080fa00000006000800fa0020079800fe
:1005bc0031079800be00900000fa20000088b900b6
:1005cc00000178002e0090006000b9000000780057
:1005dc0000014100ae00900000fa20000008b800b5
:1005ec000101410082007800008fbe00008fbe0028
:1005fc000621ef000a21ef001e00be004008de00bd
:10060c0000007800700888001e00780060088800e0
:10061c000000000021048000001020000080600019
:10062c000000e000fbff32008500a9000080fa000a
:10063c00000006000a00fa00d1ff0700c822ef00f4
:10064c00cc22ef00f00f200000168800e024ef0011
:10065c000000eb00000f78000000eb001007980082
:10066c000000eb00200798000000eb00300798001a
:10067c000000eb004007980003003700000000006a
:10068c00010037000000000020002000d30207000a
:10069c000000e000080032001e0078000000e000be
:1006ac0005003a001e0090000000e00002003a0035
:1006bc0010002000000f780020002000c702070067
:1006cc000000e00053013a001e0078000000e0003a
:1006dc00500132001000200010079800027d20000d
:1006ec009015840011002000020001002e009000e3
:1006fc000000e00012003a00030037000165200002
:10070c00a01584000100010070158400b3020700dd
:10071c000000e00008003a0080158400af020700da
:10072c000000e00004003a0020002000ab020700ab
:10073c000000e000f1ff32001000200020079800bc
:10074c0070158400a50207000000e0001a003200ba
:10075c0080158400a10207000000e00016003200a2
:10076c004e0090000000e80040079800ce0090007a
:10077c004001200000017800110009008200d8001f
:10078c008000fd000000e00004003a00016520003c
:10079c00b015840001000100030037000165200042
:1007ac00a0158400010001001000200001002000b1
:1007bc007dff0700170137007015840087020700c2
:1007cc000000e000fc003a00801584008302070062
:1007dc000000e000f8003a003e0090000000e80045
:1007ec00300798003e009000e10f500027003200c7
:1007fc003e009000e20f5000240032003e009000ba
:10080c00e30f5000210032003e009000e50f500035
:10081c001e0032003e009000e60f50001b0032001c
:10082c003e009000e70f5000180032003e00900090
:10083c00e90f5000150032003e009000ec0f500004
:10084c00120032003e009000ee0f50000f003200fc
:10085c003e009000ef0f50000c0032003e00900064
:10086c00f20f5000090032003e009000f50f5000ce
:10087c00060032003e009000f60f500003003200dc
:10088c003e009000f80f500019003a00016520005e
:10089c00a0158400010001001000200001002000c0
:1008ac0041ff070001652000a01584000100010034
:1008bc000000000070158400480207000000e000f2
:1008cc000400320080158400440207000000e000a0
:1008dc0004003a0020002000400207000000e00065
:1008ec00f4ff3200a0002000010020002eff0700c2
:1008fc003e009000f70f500022003a0001652000e6
:10090c00a01584000100010010002000010020004f
:10091c0025ff070001652000a015840001000100df
:10092c0000000000701584002c0207000000e0009d
:10093c000400320080158400280207000000e0004b
:10094c0004003a0020002000240207000000e00010
:10095c00f4ff320001652000a015840001000100a5
:10096c0010002000010020000fff0700016520008f
:10097c00e015840001000100800c20000100200023
:10098c0009ff07003e009000e40f50000300320006
:10099c003e009000ed0f50000c003a000165200065
:1009ac00e01584000100010010002000010020006f
:1009bc00fdfe070001652000b01584000100010058
:1009cc000032200001002000f7fe07003e009000de
:1009dc00e80f5000030032003e009000f40f50006e
:1009ec000c003a0001652000e015840001000100b4
:1009fc001000200001002000ebfe07000165200024
:100a0c00b015840001000100401f200001002000ef
:100a1c00e5fe07003e009000ea0f50000300320094
:100a2c003e009000eb0f50000c003a0001652000d6
:100a3c00d0158400010001001000200001002000ee
:100a4c00d9fe070001652000c015840001000100db
:100a5c00401f200001002000d3fe07003e00900044
:100a6c00f00f5000030032003e009000f10f5000d8
:100a7c0026003a0001652000d01584000100010019
:100a8c001000200001002000c7fe070001652000b7
:100a9c00d0158400010001000000000070158400d6
:100aac00ce0107000000e00008003a008015840029
:100abc00ca0107000000e00004003a0020002000fa
:100acc00c60107000000e000f4ff320001652000c1
:100adc00a0158400010001000000000070158400c6
:100aec00be0107000000e000040032008015840005
:100afc00ba0107000000e00004003a0020002000ca
:100b0c00b60107000000e000f4ff32003e00900048
:100b1c00f30f500022003a000165200000168400fb
:100b2c000100010010002000010020009efe0700c3
:100b3c0001652000f0158400010001002003200055
:100b4c000100200098fe07000165200000168400bb
:100b5c0001000100401f20000100200092fe070050
:100b6c0001652000a01584000100010000000000b8
:100b7c0070158400990107000000e00004003200a9
:100b8c0080158400950107000000e00004003a0085
:100b9c0020002000910107000000e000f4ff32006b
:100bac003e009000f90f50001a003a000000eb00d4
:100bbc00000f7800170037007015840087010700bc
:100bcc000000e00008003a00801584008301070053
:100bdc000000e0000400320001652000e0158400f4
:100bec00010001000b003700701584007b01070029
:100bfc000000e00007003200801584007701070038
:100c0c000000e00003003a0001652000d0158400cc
:100c1c000100010020002000700107000000e0002e
:100c2c00050032001e0090000000e00002003200bf
:100c3c000000eb00000f7800200020006701070087
:100c4c000000e0008dfe3a001e0078000000e0007d
:100c5c008cfe3a00016520000016840001000100a2
:100c6c000000eb00100798000000eb004007980014
:100c7c000000eb00300798000000eb002007980004
:100c8c00027d2000901584008000eb000200010022
:100c9c007dfe37000200fa00000f7800a0158400da
:100cac009e007800808f500011003a00027d2000d9
:100cbc00301584001100200002000100027d20008c
:100ccc00401584008000eb0002000100027d200032
:100cdc00501584001100200002000100027d20004c
:100cec00601584008000eb0002000100a7003700b3
:100cfc00b01584009e007800808f500011003a00df
:100d0c00027d2000301584008000eb000200010001
:100d1c00027d2000401584008000eb0002000100e1
:100d2c00027d2000501584001100200002000100fb
:100d3c00027d2000601584008000eb0002000100a1
:100d4c0092003700c01584009e007800808f500000
:100d5c0011003a00027d20003015840011002000a3
:100d6c0002000100027d2000401584008000eb0091
:100d7c0002000100027d2000501584008000eb0071
:100d8c0002000100027d2000601584008000eb0051
:100d9c00020001007d003700d01584009e00780011
:100dac00808f500011003a00027d20003015840025
:100dbc001100200002000100027d2000401584007b
:100dcc008000eb0002000100027d20005015840021
:100ddc008000eb0002000100027d20006015840001
:100dec00110020000200010068003700e0158400ab
:100dfc009e007800808f500011003a00027d200088
:100e0c00301584008000eb0002000100027d200000
:100e1c00401584001100200002000100027d20001a
:100e2c00501584001100200002000100027d2000fa
:100e3c00601584008000eb000200010053003700b5
:100e4c00f01584009e007800808f500011003a004d
:100e5c00027d2000301584008000eb0002000100b0
:100e6c00027d2000401584001100200002000100ca
:100e7c00027d2000501584008000eb000200010070
:100e8c00027d20006015840011002000020001008a
:100e9c003e003700001684009e007800808f5000c2
:100eac0011003a00027d2000301584008000eb0018
:100ebc0002000100027d2000401584008000eb0040
:100ecc0002000100027d2000501584008000eb0020
:100edc0002000100027d2000601584008000eb0000
:100eec000200010029003700101684009e007800d3
:100efc00808f500011003a00027d200030158400d4
:100f0c008000eb0002000100027d200040158400ef
:100f1c008000eb0002000100027d200050158400cf
:100f2c008000eb0002000100027d200060158400af
:100f3c00110020000200010014003700201684006c
:100f4c009e007800808f500010003a00027d200037
:100f5c00301584008000eb0002000100027d2000af
:100f6c00401584001100200002000100027d2000c9
:100f7c00501584008000eb0002000100027d20006f
:100f8c00601584008000eb00020001000080fa0074
:100f9c00000006000400fa00000f7800110798000a
:100fac001e0078006101b900a0ff2f00f1ff2f0097
:100fbc0002004000838048009200200003002000c3
:100fcc00820f5000838f580082003e0000600100a9
:100fdc0009003700140037001f0037002a003700c3
:100fec0035003700400037004b0037005600370003
:100ffc00610037006c0037001e0090000040780044
:10100c00614060000080fb00610060004600dd0074
:10101c0062168000f1fb2f0081006100010070005e
:10102c00601688006b0037001e00900000407800ae
:10103c00614060000080fb00610060004700dd0043
:10104c0062168000f1f72f00810061000100700032
:10105c00601688005f0037001e009000004078008a
:10106c00614060000080fb00610060004800dd0012
:10107c0062168000f1ef2f0081006100010070000a
:10108c0060168800530037001e0090000040780066
:10109c00614060000080fb00610060004900dd00e1
:1010ac0062168000f1df2f008100610001007000ea
:1010bc0060168800470037001e0090000040780042
:1010cc00614060000080fb00610060004a00dd00b0
:1010dc0062168000f1bf2f008100610001007000da
:1010ec00601688003b0037001e009000004078001e
:1010fc00614060000080fb00610060004b00dd007f
:10110c0062168000f17f2f008100610001007000e9
:10111c00601688002f0037001e00900000407800f9
:10112c00614060000080fb00610060004c00dd004d
:10113c0062168000f1ff2e0081006100010070003a
:10114c0060168800230037001e00900000407800d5
:10115c00614060000080fb00610060004d00dd001c
:10116c0062168000f1ff2d0081006100010070000b
:10117c0060168800170037001e00900000407800b1
:10118c00614060000080fb00610060004e00dd00eb
:10119c0062168000f1ff2b008100610001007000dd
:1011ac00601688000b0037001e009000004078008d
:1011bc00614060000080fb004f00dd006216800083
:1011cc00f1ff2700810061000100700060168800ab
:1011dc00000000000080fa00000006000200fa0087
:1011ec00000f78001e007800e20f5000160032004d
:1011fc00e20f500005003c000000e0000800320047
:10120c00e10f50000b0032001e003700e30f5000be
:10121c0012003200e40f50001500320019003700a4
:10122c001016800000407800614060000080fb00d8
:10123c0015003700101680000000d10061406000de
:10124c000080fb0010003700101680004200de000a
:10125c00614060000080fb000b003700101680001e
:10126c004300de00614060000080fb000600370098
:10127c00101680004400de00614060000080fb001e
:10128c0001003700000037000080fa000000060063
:020000040000fa
:04129c00000000004e
:020000040000fa
:0200000401f009
:04000c0058ff000099
:020000040000fa
:0200000401f009
:04001000fbff0000f2
:020000040000fa
:0200000401f009
:040014005fff00008a
:020000040000fa
:0200000401f009
:04001c00ffff0000e2
:020000040000fa
:0200000401f009
:040020007fff00005e
:00000001FF
